{
  "_format": "hh-sol-artifact-1",
  "contractName": "ParrOdessa42",
  "sourceName": "contracts/ParrOdessa42.sol",
  "abi": [
    {
      "inputs": [
        {
          "internalType": "string",
          "name": "name",
          "type": "string"
        },
        {
          "internalType": "string",
          "name": "symbol",
          "type": "string"
        },
        {
          "internalType": "string",
          "name": "baseURI",
          "type": "string"
        }
      ],
      "stateMutability": "nonpayable",
      "type": "constructor"
    },
    {
      "anonymous": false,
      "inputs": [
        {
          "indexed": true,
          "internalType": "address",
          "name": "owner",
          "type": "address"
        },
        {
          "indexed": true,
          "internalType": "address",
          "name": "approved",
          "type": "address"
        },
        {
          "indexed": true,
          "internalType": "uint256",
          "name": "tokenId",
          "type": "uint256"
        }
      ],
      "name": "Approval",
      "type": "event"
    },
    {
      "anonymous": false,
      "inputs": [
        {
          "indexed": true,
          "internalType": "address",
          "name": "owner",
          "type": "address"
        },
        {
          "indexed": true,
          "internalType": "address",
          "name": "operator",
          "type": "address"
        },
        {
          "indexed": false,
          "internalType": "bool",
          "name": "approved",
          "type": "bool"
        }
      ],
      "name": "ApprovalForAll",
      "type": "event"
    },
    {
      "anonymous": false,
      "inputs": [
        {
          "indexed": false,
          "internalType": "string",
          "name": "newBaseURI",
          "type": "string"
        }
      ],
      "name": "BaseURIUpdated",
      "type": "event"
    },
    {
      "anonymous": false,
      "inputs": [
        {
          "indexed": false,
          "internalType": "uint256",
          "name": "_fromTokenId",
          "type": "uint256"
        },
        {
          "indexed": false,
          "internalType": "uint256",
          "name": "_toTokenId",
          "type": "uint256"
        }
      ],
      "name": "BatchMetadataUpdate",
      "type": "event"
    },
    {
      "anonymous": false,
      "inputs": [
        {
          "indexed": false,
          "internalType": "uint256",
          "name": "_tokenId",
          "type": "uint256"
        }
      ],
      "name": "MetadataUpdate",
      "type": "event"
    },
    {
      "anonymous": false,
      "inputs": [
        {
          "indexed": false,
          "internalType": "uint256",
          "name": "newPrice",
          "type": "uint256"
        }
      ],
      "name": "MintPriceUpdated",
      "type": "event"
    },
    {
      "anonymous": false,
      "inputs": [
        {
          "indexed": false,
          "internalType": "bool",
          "name": "enabled",
          "type": "bool"
        }
      ],
      "name": "MintingToggled",
      "type": "event"
    },
    {
      "anonymous": false,
      "inputs": [
        {
          "indexed": true,
          "internalType": "address",
          "name": "to",
          "type": "address"
        },
        {
          "indexed": true,
          "internalType": "uint256",
          "name": "tokenId",
          "type": "uint256"
        },
        {
          "indexed": false,
          "internalType": "string",
          "name": "tokenURI",
          "type": "string"
        }
      ],
      "name": "NFTMinted",
      "type": "event"
    },
    {
      "anonymous": false,
      "inputs": [
        {
          "indexed": true,
          "internalType": "address",
          "name": "previousOwner",
          "type": "address"
        },
        {
          "indexed": true,
          "internalType": "address",
          "name": "newOwner",
          "type": "address"
        }
      ],
      "name": "OwnershipTransferred",
      "type": "event"
    },
    {
      "anonymous": false,
      "inputs": [
        {
          "indexed": true,
          "internalType": "address",
          "name": "from",
          "type": "address"
        },
        {
          "indexed": true,
          "internalType": "address",
          "name": "to",
          "type": "address"
        },
        {
          "indexed": true,
          "internalType": "uint256",
          "name": "tokenId",
          "type": "uint256"
        }
      ],
      "name": "Transfer",
      "type": "event"
    },
    {
      "inputs": [],
      "name": "MAX_SUPPLY",
      "outputs": [
        {
          "internalType": "uint256",
          "name": "",
          "type": "uint256"
        }
      ],
      "stateMutability": "view",
      "type": "function"
    },
    {
      "inputs": [
        {
          "internalType": "address",
          "name": "to",
          "type": "address"
        },
        {
          "internalType": "uint256",
          "name": "tokenId",
          "type": "uint256"
        }
      ],
      "name": "approve",
      "outputs": [],
      "stateMutability": "nonpayable",
      "type": "function"
    },
    {
      "inputs": [
        {
          "internalType": "address",
          "name": "owner",
          "type": "address"
        }
      ],
      "name": "balanceOf",
      "outputs": [
        {
          "internalType": "uint256",
          "name": "",
          "type": "uint256"
        }
      ],
      "stateMutability": "view",
      "type": "function"
    },
    {
      "inputs": [
        {
          "internalType": "uint256",
          "name": "tokenId",
          "type": "uint256"
        }
      ],
      "name": "burn",
      "outputs": [],
      "stateMutability": "nonpayable",
      "type": "function"
    },
    {
      "inputs": [
        {
          "internalType": "uint256",
          "name": "tokenId",
          "type": "uint256"
        }
      ],
      "name": "getApproved",
      "outputs": [
        {
          "internalType": "address",
          "name": "",
          "type": "address"
        }
      ],
      "stateMutability": "view",
      "type": "function"
    },
    {
      "inputs": [],
      "name": "getCurrentTokenId",
      "outputs": [
        {
          "internalType": "uint256",
          "name": "",
          "type": "uint256"
        }
      ],
      "stateMutability": "view",
      "type": "function"
    },
    {
      "inputs": [
        {
          "internalType": "address",
          "name": "owner",
          "type": "address"
        },
        {
          "internalType": "address",
          "name": "operator",
          "type": "address"
        }
      ],
      "name": "isApprovedForAll",
      "outputs": [
        {
          "internalType": "bool",
          "name": "",
          "type": "bool"
        }
      ],
      "stateMutability": "view",
      "type": "function"
    },
    {
      "inputs": [
        {
          "internalType": "address",
          "name": "to",
          "type": "address"
        },
        {
          "internalType": "string",
          "name": "uri",
          "type": "string"
        }
      ],
      "name": "mintNFT",
      "outputs": [],
      "stateMutability": "nonpayable",
      "type": "function"
    },
    {
      "inputs": [],
      "name": "mintPrice",
      "outputs": [
        {
          "internalType": "uint256",
          "name": "",
          "type": "uint256"
        }
      ],
      "stateMutability": "view",
      "type": "function"
    },
    {
      "inputs": [],
      "name": "mintingEnabled",
      "outputs": [
        {
          "internalType": "bool",
          "name": "",
          "type": "bool"
        }
      ],
      "stateMutability": "view",
      "type": "function"
    },
    {
      "inputs": [],
      "name": "name",
      "outputs": [
        {
          "internalType": "string",
          "name": "",
          "type": "string"
        }
      ],
      "stateMutability": "view",
      "type": "function"
    },
    {
      "inputs": [],
      "name": "owner",
      "outputs": [
        {
          "internalType": "address",
          "name": "",
          "type": "address"
        }
      ],
      "stateMutability": "view",
      "type": "function"
    },
    {
      "inputs": [
        {
          "internalType": "uint256",
          "name": "tokenId",
          "type": "uint256"
        }
      ],
      "name": "ownerOf",
      "outputs": [
        {
          "internalType": "address",
          "name": "",
          "type": "address"
        }
      ],
      "stateMutability": "view",
      "type": "function"
    },
    {
      "inputs": [
        {
          "internalType": "string",
          "name": "uri",
          "type": "string"
        }
      ],
      "name": "publicMint",
      "outputs": [],
      "stateMutability": "payable",
      "type": "function"
    },
    {
      "inputs": [],
      "name": "renounceOwnership",
      "outputs": [],
      "stateMutability": "nonpayable",
      "type": "function"
    },
    {
      "inputs": [
        {
          "internalType": "address",
          "name": "from",
          "type": "address"
        },
        {
          "internalType": "address",
          "name": "to",
          "type": "address"
        },
        {
          "internalType": "uint256",
          "name": "tokenId",
          "type": "uint256"
        }
      ],
      "name": "safeTransferFrom",
      "outputs": [],
      "stateMutability": "nonpayable",
      "type": "function"
    },
    {
      "inputs": [
        {
          "internalType": "address",
          "name": "from",
          "type": "address"
        },
        {
          "internalType": "address",
          "name": "to",
          "type": "address"
        },
        {
          "internalType": "uint256",
          "name": "tokenId",
          "type": "uint256"
        },
        {
          "internalType": "bytes",
          "name": "data",
          "type": "bytes"
        }
      ],
      "name": "safeTransferFrom",
      "outputs": [],
      "stateMutability": "nonpayable",
      "type": "function"
    },
    {
      "inputs": [
        {
          "internalType": "address",
          "name": "operator",
          "type": "address"
        },
        {
          "internalType": "bool",
          "name": "approved",
          "type": "bool"
        }
      ],
      "name": "setApprovalForAll",
      "outputs": [],
      "stateMutability": "nonpayable",
      "type": "function"
    },
    {
      "inputs": [
        {
          "internalType": "string",
          "name": "newBaseURI",
          "type": "string"
        }
      ],
      "name": "setBaseURI",
      "outputs": [],
      "stateMutability": "nonpayable",
      "type": "function"
    },
    {
      "inputs": [
        {
          "internalType": "uint256",
          "name": "newPrice",
          "type": "uint256"
        }
      ],
      "name": "setMintPrice",
      "outputs": [],
      "stateMutability": "nonpayable",
      "type": "function"
    },
    {
      "inputs": [
        {
          "internalType": "bool",
          "name": "enabled",
          "type": "bool"
        }
      ],
      "name": "setMintingEnabled",
      "outputs": [],
      "stateMutability": "nonpayable",
      "type": "function"
    },
    {
      "inputs": [
        {
          "internalType": "bytes4",
          "name": "interfaceId",
          "type": "bytes4"
        }
      ],
      "name": "supportsInterface",
      "outputs": [
        {
          "internalType": "bool",
          "name": "",
          "type": "bool"
        }
      ],
      "stateMutability": "view",
      "type": "function"
    },
    {
      "inputs": [],
      "name": "symbol",
      "outputs": [
        {
          "internalType": "string",
          "name": "",
          "type": "string"
        }
      ],
      "stateMutability": "view",
      "type": "function"
    },
    {
      "inputs": [
        {
          "internalType": "uint256",
          "name": "tokenId",
          "type": "uint256"
        }
      ],
      "name": "tokenURI",
      "outputs": [
        {
          "internalType": "string",
          "name": "",
          "type": "string"
        }
      ],
      "stateMutability": "view",
      "type": "function"
    },
    {
      "inputs": [
        {
          "internalType": "address",
          "name": "owner",
          "type": "address"
        }
      ],
      "name": "tokensOfOwner",
      "outputs": [
        {
          "internalType": "uint256[]",
          "name": "",
          "type": "uint256[]"
        }
      ],
      "stateMutability": "view",
      "type": "function"
    },
    {
      "inputs": [],
      "name": "totalSupply",
      "outputs": [
        {
          "internalType": "uint256",
          "name": "",
          "type": "uint256"
        }
      ],
      "stateMutability": "view",
      "type": "function"
    },
    {
      "inputs": [
        {
          "internalType": "address",
          "name": "from",
          "type": "address"
        },
        {
          "internalType": "address",
          "name": "to",
          "type": "address"
        },
        {
          "internalType": "uint256",
          "name": "tokenId",
          "type": "uint256"
        }
      ],
      "name": "transferFrom",
      "outputs": [],
      "stateMutability": "nonpayable",
      "type": "function"
    },
    {
      "inputs": [
        {
          "internalType": "address",
          "name": "newOwner",
          "type": "address"
        }
      ],
      "name": "transferOwnership",
      "outputs": [],
      "stateMutability": "nonpayable",
      "type": "function"
    },
    {
      "inputs": [],
      "name": "withdraw",
      "outputs": [],
      "stateMutability": "nonpayable",
      "type": "function"
    },
    {
      "stateMutability": "payable",
      "type": "receive"
    }
  ],
  "bytecode": "0x6080604052662386f26fc10000600b55600c805460ff191660011790553480156200002957600080fd5b506040516200276a3803806200276a8339810160408190526200004c91620001c0565b828260006200005c8382620002e0565b5060016200006b8282620002e0565b5050506200008862000082620000a560201b60201c565b620000a9565b6001600855600a6200009b8282620002e0565b50505050620003ac565b3390565b600780546001600160a01b038381166001600160a01b0319831681179093556040519116919082907f8be0079c531659141344cd1fd0a4f28419497f9722a3daafe3b4186f6b6457e090600090a35050565b634e487b7160e01b600052604160045260246000fd5b600082601f8301126200012357600080fd5b81516001600160401b0380821115620001405762000140620000fb565b604051601f8301601f19908116603f011681019082821181831017156200016b576200016b620000fb565b816040528381526020925086838588010111156200018857600080fd5b600091505b83821015620001ac57858201830151818301840152908201906200018d565b600093810190920192909252949350505050565b600080600060608486031215620001d657600080fd5b83516001600160401b0380821115620001ee57600080fd5b620001fc8783880162000111565b945060208601519150808211156200021357600080fd5b620002218783880162000111565b935060408601519150808211156200023857600080fd5b50620002478682870162000111565b9150509250925092565b600181811c908216806200026657607f821691505b6020821081036200028757634e487b7160e01b600052602260045260246000fd5b50919050565b601f821115620002db57600081815260208120601f850160051c81016020861015620002b65750805b601f850160051c820191505b81811015620002d757828155600101620002c2565b5050505b505050565b81516001600160401b03811115620002fc57620002fc620000fb565b62000314816200030d845462000251565b846200028d565b602080601f8311600181146200034c5760008415620003335750858301515b600019600386901b1c1916600185901b178555620002d7565b600085815260208120601f198616915b828110156200037d578886015182559484019460019091019084016200035c565b50858210156200039c5787850151600019600388901b60f8161c191681555b5050505050600190811b01905550565b6123ae80620003bc6000396000f3fe6080604052600436106101c65760003560e01c80636817c76c116100f7578063a22cb46511610095578063e985e9c511610064578063e985e9c5146104c8578063eacabe1414610511578063f2fde38b14610531578063f4a0a5281461055157600080fd5b8063a22cb46514610455578063b3d7acf914610475578063b88d4fde14610488578063c87b56dd146104a857600080fd5b80638462151c116100d15780638462151c146103db5780638da5cb5b1461040857806395d89b41146104265780639fd6db121461043b57600080fd5b80636817c76c1461039057806370a08231146103a6578063715018a6146103c657600080fd5b80633ccfd60b116101645780634ea3871a1161013e5780634ea3871a1461033057806355f804b31461035057806356189236146102835780636352211e1461037057600080fd5b80633ccfd60b146102db57806342842e0e146102f057806342966c681461031057600080fd5b8063095ea7b3116101a0578063095ea7b31461026157806318160ddd1461028357806323b872dd146102a657806332cb6b0c146102c657600080fd5b806301ffc9a7146101d257806306fdde0314610207578063081812fc1461022957600080fd5b366101cd57005b600080fd5b3480156101de57600080fd5b506101f26101ed366004611cd9565b610571565b60405190151581526020015b60405180910390f35b34801561021357600080fd5b5061021c610582565b6040516101fe9190611d46565b34801561023557600080fd5b50610249610244366004611d59565b610614565b6040516001600160a01b0390911681526020016101fe565b34801561026d57600080fd5b5061028161027c366004611d8e565b61063b565b005b34801561028f57600080fd5b50610298610755565b6040519081526020016101fe565b3480156102b257600080fd5b506102816102c1366004611db8565b610765565b3480156102d257600080fd5b50610298602a81565b3480156102e757600080fd5b50610281610797565b3480156102fc57600080fd5b5061028161030b366004611db8565b610890565b34801561031c57600080fd5b5061028161032b366004611d59565b6108ab565b34801561033c57600080fd5b5061028161034b366004611e04565b6108dc565b34801561035c57600080fd5b5061028161036b366004611ecb565b61092c565b34801561037c57600080fd5b5061024961038b366004611d59565b610970565b34801561039c57600080fd5b50610298600b5481565b3480156103b257600080fd5b506102986103c1366004611f00565b61097b565b3480156103d257600080fd5b50610281610986565b3480156103e757600080fd5b506103fb6103f6366004611f00565b61099a565b6040516101fe9190611f1b565b34801561041457600080fd5b506007546001600160a01b0316610249565b34801561043257600080fd5b5061021c610a67565b34801561044757600080fd5b50600c546101f29060ff1681565b34801561046157600080fd5b50610281610470366004611f5f565b610a76565b610281610483366004611ecb565b610a81565b34801561049457600080fd5b506102816104a3366004611f92565b610c3e565b3480156104b457600080fd5b5061021c6104c3366004611d59565b610c76565b3480156104d457600080fd5b506101f26104e336600461200e565b6001600160a01b03918216600090815260056020908152604080832093909416825291909152205460ff1690565b34801561051d57600080fd5b5061028161052c366004612038565b610c81565b34801561053d57600080fd5b5061028161054c366004611f00565b610e53565b34801561055d57600080fd5b5061028161056c366004611d59565b610ec9565b600061057c82610f06565b92915050565b60606000805461059190612086565b80601f01602080910402602001604051908101604052809291908181526020018280546105bd90612086565b801561060a5780601f106105df5761010080835404028352916020019161060a565b820191906000526020600020905b8154815290600101906020018083116105ed57829003601f168201915b5050505050905090565b600061061f82610f2b565b506000908152600460205260409020546001600160a01b031690565b600061064682610f8a565b9050806001600160a01b0316836001600160a01b0316036106b85760405162461bcd60e51b815260206004820152602160248201527f4552433732313a20617070726f76616c20746f2063757272656e74206f776e656044820152603960f91b60648201526084015b60405180910390fd5b336001600160a01b03821614806106d457506106d481336104e3565b6107465760405162461bcd60e51b815260206004820152603d60248201527f4552433732313a20617070726f76652063616c6c6572206973206e6f7420746f60448201527f6b656e206f776e6572206f7220617070726f76656420666f7220616c6c00000060648201526084016106af565b6107508383610fea565b505050565b600061076060095490565b905090565b610770335b82611058565b61078c5760405162461bcd60e51b81526004016106af906120c0565b6107508383836110d7565b61079f61123b565b47806107e45760405162461bcd60e51b81526020600482015260146024820152734e6f2066756e647320746f20776974686472617760601b60448201526064016106af565b60006107f86007546001600160a01b031690565b6001600160a01b03168260405160006040518083038185875af1925050503d8060008114610842576040519150601f19603f3d011682016040523d82523d6000602084013e610847565b606091505b505090508061088c5760405162461bcd60e51b815260206004820152601160248201527015da5d1a191c985dd85b0819985a5b1959607a1b60448201526064016106af565b5050565b61075083838360405180602001604052806000815250610c3e565b6108b43361076a565b6108d05760405162461bcd60e51b81526004016106af906120c0565b6108d981611295565b50565b6108e461123b565b600c805460ff19168215159081179091556040519081527f6bdfe227d5db299c59aa56d5f846f40dbd73b271aaa78e18ed74fc3e00b8aa6b906020015b60405180910390a150565b61093461123b565b600a610940828261215b565b507f6741b2fc379fad678116fe3d4d4b9a1a184ab53ba36b86ad0fa66340b1ab41ad816040516109219190611d46565b600061057c82610f8a565b600061057c8261129e565b61098e61123b565b6109986000611324565b565b606060006109a78361097b565b905060008167ffffffffffffffff8111156109c4576109c4611e1f565b6040519080825280602002602001820160405280156109ed578160200160208202803683370190505b5090506000805b600954811015610a5d57856001600160a01b0316610a1182610970565b6001600160a01b031603610a4b5780838381518110610a3257610a3261221b565b602090810291909101015281610a4781612231565b9250505b80610a5581612231565b9150506109f4565b5090949350505050565b60606001805461059190612086565b61088c338383611376565b610a89611444565b600c5460ff16610adb5760405162461bcd60e51b815260206004820152601d60248201527f4d696e74696e672069732063757272656e746c792064697361626c656400000060448201526064016106af565b602a610ae660095490565b10610b2c5760405162461bcd60e51b815260206004820152601660248201527513585e1a5b5d5b481cdd5c1c1b1e481c995858da195960521b60448201526064016106af565b600b54341015610b755760405162461bcd60e51b8152602060048201526014602482015273125b9cdd59999a58da595b9d081c185e5b595b9d60621b60448201526064016106af565b6000815111610bc25760405162461bcd60e51b8152602060048201526019602482015278546f6b656e205552492063616e6e6f7420626520656d70747960381b60448201526064016106af565b6000610bcd60095490565b9050610bdd600980546001019055565b610be7338261149d565b610bf181836114b7565b80336001600160a01b03167fd35bb95e09c04b219e35047ce7b7b300e3384264ef84a40456943dbc0fc17c1484604051610c2b9190611d46565b60405180910390a3506108d96001600855565b610c483383611058565b610c645760405162461bcd60e51b81526004016106af906120c0565b610c7084848484611582565b50505050565b606061057c826115b5565b610c8961123b565b610c91611444565b600c5460ff16610ce35760405162461bcd60e51b815260206004820152601d60248201527f4d696e74696e672069732063757272656e746c792064697361626c656400000060448201526064016106af565b602a610cee60095490565b10610d345760405162461bcd60e51b815260206004820152601660248201527513585e1a5b5d5b481cdd5c1c1b1e481c995858da195960521b60448201526064016106af565b6001600160a01b038216610d8a5760405162461bcd60e51b815260206004820152601b60248201527f43616e6e6f74206d696e7420746f207a65726f2061646472657373000000000060448201526064016106af565b6000815111610dd75760405162461bcd60e51b8152602060048201526019602482015278546f6b656e205552492063616e6e6f7420626520656d70747960381b60448201526064016106af565b6000610de260095490565b9050610df2600980546001019055565b610dfc838261149d565b610e0681836114b7565b80836001600160a01b03167fd35bb95e09c04b219e35047ce7b7b300e3384264ef84a40456943dbc0fc17c1484604051610e409190611d46565b60405180910390a35061088c6001600855565b610e5b61123b565b6001600160a01b038116610ec05760405162461bcd60e51b815260206004820152602660248201527f4f776e61626c653a206e6577206f776e657220697320746865207a65726f206160448201526564647265737360d01b60648201526084016106af565b6108d981611324565b610ed161123b565b600b8190556040518181527f525b762709cc2a983aec5ccdfd807a061f993c91090b5bcd7da92ca254976aaa90602001610921565b60006001600160e01b03198216632483248360e11b148061057c575061057c826116b0565b6000818152600260205260409020546001600160a01b03166108d95760405162461bcd60e51b8152602060048201526018602482015277115490cdcc8c4e881a5b9d985b1a59081d1bdad95b88125160421b60448201526064016106af565b6000818152600260205260408120546001600160a01b03168061057c5760405162461bcd60e51b8152602060048201526018602482015277115490cdcc8c4e881a5b9d985b1a59081d1bdad95b88125160421b60448201526064016106af565b600081815260046020526040902080546001600160a01b0319166001600160a01b038416908117909155819061101f82610f8a565b6001600160a01b03167f8c5be1e5ebec7d5bd14f71427d1e84f3dd0314c0f7b2291e5b200ac8c7c3b92560405160405180910390a45050565b60008061106483610f8a565b9050806001600160a01b0316846001600160a01b031614806110ab57506001600160a01b0380821660009081526005602090815260408083209388168352929052205460ff165b806110cf5750836001600160a01b03166110c484610614565b6001600160a01b0316145b949350505050565b826001600160a01b03166110ea82610f8a565b6001600160a01b0316146111105760405162461bcd60e51b81526004016106af90612258565b6001600160a01b0382166111725760405162461bcd60e51b8152602060048201526024808201527f4552433732313a207472616e7366657220746f20746865207a65726f206164646044820152637265737360e01b60648201526084016106af565b826001600160a01b031661118582610f8a565b6001600160a01b0316146111ab5760405162461bcd60e51b81526004016106af90612258565b600081815260046020908152604080832080546001600160a01b03199081169091556001600160a01b0387811680865260038552838620805460001901905590871680865283862080546001019055868652600290945282852080549092168417909155905184937fddf252ad1be2c89b69c2b068fc378daa952ba7f163c4a11628f55a4df523b3ef91a4505050565b6007546001600160a01b031633146109985760405162461bcd60e51b815260206004820181905260248201527f4f776e61626c653a2063616c6c6572206973206e6f7420746865206f776e657260448201526064016106af565b6108d981611700565b60006001600160a01b0382166113085760405162461bcd60e51b815260206004820152602960248201527f4552433732313a2061646472657373207a65726f206973206e6f7420612076616044820152683634b21037bbb732b960b91b60648201526084016106af565b506001600160a01b031660009081526003602052604090205490565b600780546001600160a01b038381166001600160a01b0319831681179093556040519116919082907f8be0079c531659141344cd1fd0a4f28419497f9722a3daafe3b4186f6b6457e090600090a35050565b816001600160a01b0316836001600160a01b0316036113d75760405162461bcd60e51b815260206004820152601960248201527f4552433732313a20617070726f766520746f2063616c6c65720000000000000060448201526064016106af565b6001600160a01b03838116600081815260056020908152604080832094871680845294825291829020805460ff191686151590811790915591519182527f17307eab39ab6107e8899845ad3d59bd9653f200f220920489ca2b5937696c31910160405180910390a3505050565b6002600854036114965760405162461bcd60e51b815260206004820152601f60248201527f5265656e7472616e637947756172643a207265656e7472616e742063616c6c0060448201526064016106af565b6002600855565b61088c828260405180602001604052806000815250611740565b6000828152600260205260409020546001600160a01b03166115325760405162461bcd60e51b815260206004820152602e60248201527f45524337323155524953746f726167653a2055524920736574206f66206e6f6e60448201526d32bc34b9ba32b73a103a37b5b2b760911b60648201526084016106af565b600082815260066020526040902061154a828261215b565b506040518281527ff8e1a15aba9398e019f0b49df1a4fde98ee17ae345cb5f6b5e2c27f5033e8ce79060200160405180910390a15050565b61158d8484846110d7565b61159984848484611773565b610c705760405162461bcd60e51b81526004016106af9061229d565b60606115c082610f2b565b600082815260066020526040812080546115d990612086565b80601f016020809104026020016040519081016040528092919081815260200182805461160590612086565b80156116525780601f1061162757610100808354040283529160200191611652565b820191906000526020600020905b81548152906001019060200180831161163557829003601f168201915b505050505090506000611663611874565b90508051600003611675575092915050565b8151156116a757808260405160200161168f9291906122ef565b60405160208183030381529060405292505050919050565b6110cf84611883565b60006001600160e01b031982166380ac58cd60e01b14806116e157506001600160e01b03198216635b5e139f60e01b145b8061057c57506301ffc9a760e01b6001600160e01b031983161461057c565b611709816118ea565b6000818152600660205260409020805461172290612086565b1590506108d95760008181526006602052604081206108d991611c75565b61174a838361197f565b6117576000848484611773565b6107505760405162461bcd60e51b81526004016106af9061229d565b60006001600160a01b0384163b1561186957604051630a85bd0160e11b81526001600160a01b0385169063150b7a02906117b790339089908890889060040161231e565b6020604051808303816000875af19250505080156117f2575060408051601f3d908101601f191682019092526117ef9181019061235b565b60015b61184f573d808015611820576040519150601f19603f3d011682016040523d82523d6000602084013e611825565b606091505b5080516000036118475760405162461bcd60e51b81526004016106af9061229d565b805181602001fd5b6001600160e01b031916630a85bd0160e11b1490506110cf565b506001949350505050565b6060600a805461059190612086565b606061188e82610f2b565b6000611898611874565b905060008151116118b857604051806020016040528060008152506118e3565b806118c284611b0a565b6040516020016118d39291906122ef565b6040516020818303038152906040525b9392505050565b60006118f582610f8a565b905061190082610f8a565b600083815260046020908152604080832080546001600160a01b03199081169091556001600160a01b0385168085526003845282852080546000190190558785526002909352818420805490911690555192935084927fddf252ad1be2c89b69c2b068fc378daa952ba7f163c4a11628f55a4df523b3ef908390a45050565b6001600160a01b0382166119d55760405162461bcd60e51b815260206004820181905260248201527f4552433732313a206d696e7420746f20746865207a65726f206164647265737360448201526064016106af565b6000818152600260205260409020546001600160a01b031615611a3a5760405162461bcd60e51b815260206004820152601c60248201527f4552433732313a20746f6b656e20616c7265616479206d696e7465640000000060448201526064016106af565b6000818152600260205260409020546001600160a01b031615611a9f5760405162461bcd60e51b815260206004820152601c60248201527f4552433732313a20746f6b656e20616c7265616479206d696e7465640000000060448201526064016106af565b6001600160a01b038216600081815260036020908152604080832080546001019055848352600290915280822080546001600160a01b0319168417905551839291907fddf252ad1be2c89b69c2b068fc378daa952ba7f163c4a11628f55a4df523b3ef908290a45050565b60606000611b1783611b9d565b600101905060008167ffffffffffffffff811115611b3757611b37611e1f565b6040519080825280601f01601f191660200182016040528015611b61576020820181803683370190505b5090508181016020015b600019016f181899199a1a9b1b9c1cb0b131b232b360811b600a86061a8153600a8504945084611b6b57509392505050565b60008072184f03e93ff9f4daa797ed6e38ed64bf6a1f0160401b8310611bdc5772184f03e93ff9f4daa797ed6e38ed64bf6a1f0160401b830492506040015b6d04ee2d6d415b85acef81000000008310611c08576d04ee2d6d415b85acef8100000000830492506020015b662386f26fc100008310611c2657662386f26fc10000830492506010015b6305f5e1008310611c3e576305f5e100830492506008015b6127108310611c5257612710830492506004015b60648310611c64576064830492506002015b600a831061057c5760010192915050565b508054611c8190612086565b6000825580601f10611c91575050565b601f0160209004906000526020600020908101906108d991905b80821115611cbf5760008155600101611cab565b5090565b6001600160e01b0319811681146108d957600080fd5b600060208284031215611ceb57600080fd5b81356118e381611cc3565b60005b83811015611d11578181015183820152602001611cf9565b50506000910152565b60008151808452611d32816020860160208601611cf6565b601f01601f19169290920160200192915050565b6020815260006118e36020830184611d1a565b600060208284031215611d6b57600080fd5b5035919050565b80356001600160a01b0381168114611d8957600080fd5b919050565b60008060408385031215611da157600080fd5b611daa83611d72565b946020939093013593505050565b600080600060608486031215611dcd57600080fd5b611dd684611d72565b9250611de460208501611d72565b9150604084013590509250925092565b80358015158114611d8957600080fd5b600060208284031215611e1657600080fd5b6118e382611df4565b634e487b7160e01b600052604160045260246000fd5b600067ffffffffffffffff80841115611e5057611e50611e1f565b604051601f8501601f19908116603f01168101908282118183101715611e7857611e78611e1f565b81604052809350858152868686011115611e9157600080fd5b858560208301376000602087830101525050509392505050565b600082601f830112611ebc57600080fd5b6118e383833560208501611e35565b600060208284031215611edd57600080fd5b813567ffffffffffffffff811115611ef457600080fd5b6110cf84828501611eab565b600060208284031215611f1257600080fd5b6118e382611d72565b6020808252825182820181905260009190848201906040850190845b81811015611f5357835183529284019291840191600101611f37565b50909695505050505050565b60008060408385031215611f7257600080fd5b611f7b83611d72565b9150611f8960208401611df4565b90509250929050565b60008060008060808587031215611fa857600080fd5b611fb185611d72565b9350611fbf60208601611d72565b925060408501359150606085013567ffffffffffffffff811115611fe257600080fd5b8501601f81018713611ff357600080fd5b61200287823560208401611e35565b91505092959194509250565b6000806040838503121561202157600080fd5b61202a83611d72565b9150611f8960208401611d72565b6000806040838503121561204b57600080fd5b61205483611d72565b9150602083013567ffffffffffffffff81111561207057600080fd5b61207c85828601611eab565b9150509250929050565b600181811c9082168061209a57607f821691505b6020821081036120ba57634e487b7160e01b600052602260045260246000fd5b50919050565b6020808252602d908201527f4552433732313a2063616c6c6572206973206e6f7420746f6b656e206f776e6560408201526c1c881bdc88185c1c1c9bdd9959609a1b606082015260800190565b601f82111561075057600081815260208120601f850160051c810160208610156121345750805b601f850160051c820191505b8181101561215357828155600101612140565b505050505050565b815167ffffffffffffffff81111561217557612175611e1f565b612189816121838454612086565b8461210d565b602080601f8311600181146121be57600084156121a65750858301515b600019600386901b1c1916600185901b178555612153565b600085815260208120601f198616915b828110156121ed578886015182559484019460019091019084016121ce565b508582101561220b5787850151600019600388901b60f8161c191681555b5050505050600190811b01905550565b634e487b7160e01b600052603260045260246000fd5b60006001820161225157634e487b7160e01b600052601160045260246000fd5b5060010190565b60208082526025908201527f4552433732313a207472616e736665722066726f6d20696e636f72726563742060408201526437bbb732b960d91b606082015260800190565b60208082526032908201527f4552433732313a207472616e7366657220746f206e6f6e20455243373231526560408201527131b2b4bb32b91034b6b83632b6b2b73a32b960711b606082015260800190565b60008351612301818460208801611cf6565b835190830190612315818360208801611cf6565b01949350505050565b6001600160a01b038581168252841660208201526040810183905260806060820181905260009061235190830184611d1a565b9695505050505050565b60006020828403121561236d57600080fd5b81516118e381611cc356fea2646970667358221220f16a43b5c24f75ff6e9aa51f070aa3f1b467a1b6e2a9af253e059ca9f7abdb0964736f6c63430008130033",
  "linkReferences": {},
  "deployedLinkReferences": {}
}